{
  "_format": "hh-sol-artifact-1",
  "contractName": "Airdrop",
  "sourceName": "contracts/Airdrop.sol",
  "abi": [
    {
      "inputs": [
        {
          "internalType": "address",
          "name": "_token",
          "type": "address"
        },
        {
          "internalType": "uint256",
          "name": "_only1",
          "type": "uint256"
        }
      ],
      "stateMutability": "nonpayable",
      "type": "constructor"
    },
    {
      "anonymous": false,
      "inputs": [
        {
          "indexed": true,
          "internalType": "address",
          "name": "user",
          "type": "address"
        },
        {
          "indexed": false,
          "internalType": "uint256",
          "name": "amount",
          "type": "uint256"
        }
      ],
      "name": "Claim",
      "type": "event"
    },
    {
      "anonymous": false,
      "inputs": [
        {
          "indexed": false,
          "internalType": "uint256",
          "name": "ammount",
          "type": "uint256"
        }
      ],
      "name": "WithdrawAll",
      "type": "event"
    },
    {
      "inputs": [],
      "name": "DigitalRupee",
      "outputs": [
        {
          "internalType": "contract IERC20",
          "name": "",
          "type": "address"
        }
      ],
      "stateMutability": "view",
      "type": "function"
    },
    {
      "inputs": [
        {
          "internalType": "address",
          "name": "",
          "type": "address"
        }
      ],
      "name": "alreadyClaimed",
      "outputs": [
        {
          "internalType": "bool",
          "name": "",
          "type": "bool"
        }
      ],
      "stateMutability": "view",
      "type": "function"
    },
    {
      "inputs": [],
      "name": "claim",
      "outputs": [],
      "stateMutability": "nonpayable",
      "type": "function"
    },
    {
      "inputs": [],
      "name": "only1",
      "outputs": [
        {
          "internalType": "uint256",
          "name": "",
          "type": "uint256"
        }
      ],
      "stateMutability": "view",
      "type": "function"
    },
    {
      "inputs": [],
      "name": "owner",
      "outputs": [
        {
          "internalType": "address payable",
          "name": "",
          "type": "address"
        }
      ],
      "stateMutability": "view",
      "type": "function"
    },
    {
      "inputs": [
        {
          "internalType": "address",
          "name": "",
          "type": "address"
        }
      ],
      "name": "user",
      "outputs": [
        {
          "internalType": "uint256",
          "name": "",
          "type": "uint256"
        }
      ],
      "stateMutability": "view",
      "type": "function"
    },
    {
      "inputs": [],
      "name": "withdrawall",
      "outputs": [],
      "stateMutability": "nonpayable",
      "type": "function"
    }
  ],
  "bytecode": "0x608060405234801561001057600080fd5b50604051610a07380380610a07833981810160405281019061003291906100ec565b33600160006101000a81548173ffffffffffffffffffffffffffffffffffffffff021916908373ffffffffffffffffffffffffffffffffffffffff1602179055508060028190555081600360006101000a81548173ffffffffffffffffffffffffffffffffffffffff021916908373ffffffffffffffffffffffffffffffffffffffff1602179055505050610192565b6000815190506100d181610164565b92915050565b6000815190506100e68161017b565b92915050565b600080604083850312156100ff57600080fd5b600061010d858286016100c2565b925050602061011e858286016100d7565b9150509250929050565b60006101338261013a565b9050919050565b600073ffffffffffffffffffffffffffffffffffffffff82169050919050565b6000819050919050565b61016d81610128565b811461017857600080fd5b50565b6101848161015a565b811461018f57600080fd5b50565b610866806101a16000396000f3fe608060405234801561001057600080fd5b506004361061007d5760003560e01c8063885213831161005b57806388521383146100da5780638da5cb5b146100f8578063f54b893b14610116578063f66c7281146101465761007d565b80634e71d92d146100825780635d453aa11461008c57806381e7e20e146100aa575b600080fd5b61008a610150565b005b610094610303565b6040516100a19190610752565b60405180910390f35b6100c460048036038101906100bf91906105f7565b610309565b6040516100d19190610752565b60405180910390f35b6100e2610321565b6040516100ef9190610737565b60405180910390f35b610100610347565b60405161010d91906106d8565b60405180910390f35b610130600480360381019061012b91906105f7565b61036d565b60405161013d919061071c565b60405180910390f35b61014e61038d565b005b600460003373ffffffffffffffffffffffffffffffffffffffff1673ffffffffffffffffffffffffffffffffffffffff16815260200190815260200160002060009054906101000a900460ff16156101a757600080fd5b600360009054906101000a900473ffffffffffffffffffffffffffffffffffffffff1673ffffffffffffffffffffffffffffffffffffffff1663a9059cbb336002546040518363ffffffff1660e01b81526004016102069291906106f3565b602060405180830381600087803b15801561022057600080fd5b505af1158015610234573d6000803e3d6000fd5b505050506040513d601f19601f820116820180604052508101906102589190610620565b506001600460003373ffffffffffffffffffffffffffffffffffffffff1673ffffffffffffffffffffffffffffffffffffffff16815260200190815260200160002060006101000a81548160ff0219169083151502179055503373ffffffffffffffffffffffffffffffffffffffff167f47cee97cb7acd717b3c0aa1435d004cd5b3c8c57d70dbceb4e4458bbd60e39d46002546040516102f99190610752565b60405180910390a2565b60025481565b60006020528060005260406000206000915090505481565b600360009054906101000a900473ffffffffffffffffffffffffffffffffffffffff1681565b600160009054906101000a900473ffffffffffffffffffffffffffffffffffffffff1681565b60046020528060005260406000206000915054906101000a900460ff1681565b600160009054906101000a900473ffffffffffffffffffffffffffffffffffffffff1673ffffffffffffffffffffffffffffffffffffffff163373ffffffffffffffffffffffffffffffffffffffff16146103e757600080fd5b6000600360009054906101000a900473ffffffffffffffffffffffffffffffffffffffff1673ffffffffffffffffffffffffffffffffffffffff166370a08231306040518263ffffffff1660e01b815260040161044491906106bd565b60206040518083038186803b15801561045c57600080fd5b505afa158015610470573d6000803e3d6000fd5b505050506040513d601f19601f820116820180604052508101906104949190610649565b9050600360009054906101000a900473ffffffffffffffffffffffffffffffffffffffff1673ffffffffffffffffffffffffffffffffffffffff1663a9059cbb33836040518363ffffffff1660e01b81526004016104f39291906106f3565b602060405180830381600087803b15801561050d57600080fd5b505af1158015610521573d6000803e3d6000fd5b505050506040513d601f19601f820116820180604052508101906105459190610620565b507f3d5a341dc6a12221fcf31279cef3771f8fad757b2d9261f97605ccc17c257424816040516105759190610752565b60405180910390a1600160009054906101000a900473ffffffffffffffffffffffffffffffffffffffff1673ffffffffffffffffffffffffffffffffffffffff16ff5b6000813590506105c7816107eb565b92915050565b6000815190506105dc81610802565b92915050565b6000815190506105f181610819565b92915050565b60006020828403121561060957600080fd5b6000610617848285016105b8565b91505092915050565b60006020828403121561063257600080fd5b6000610640848285016105cd565b91505092915050565b60006020828403121561065b57600080fd5b6000610669848285016105e2565b91505092915050565b61067b8161077f565b82525050565b61068a8161076d565b82525050565b61069981610791565b82525050565b6106a8816107c7565b82525050565b6106b7816107bd565b82525050565b60006020820190506106d26000830184610681565b92915050565b60006020820190506106ed6000830184610672565b92915050565b60006040820190506107086000830185610681565b61071560208301846106ae565b9392505050565b60006020820190506107316000830184610690565b92915050565b600060208201905061074c600083018461069f565b92915050565b600060208201905061076760008301846106ae565b92915050565b60006107788261079d565b9050919050565b600061078a8261079d565b9050919050565b60008115159050919050565b600073ffffffffffffffffffffffffffffffffffffffff82169050919050565b6000819050919050565b60006107d2826107d9565b9050919050565b60006107e48261079d565b9050919050565b6107f48161076d565b81146107ff57600080fd5b50565b61080b81610791565b811461081657600080fd5b50565b610822816107bd565b811461082d57600080fd5b5056fea26469706673582212208056e5ce41f9c085856c9452f159d807773b8fb9d30855227daafbec63461a5364736f6c63430008040033",
  "linkReferences": {},
  "deployedLinkReferences": {}
}