{
  "_format": "hh-sol-artifact-1",
  "contractName": "Voting",
  "sourceName": "contracts/Election.sol",
  "abi": [
    {
      "inputs": [
        {
          "internalType": "address",
          "name": "token",
          "type": "address"
        },
        {
          "internalType": "uint256",
          "name": "_commit",
          "type": "uint256"
        }
      ],
      "stateMutability": "nonpayable",
      "type": "constructor"
    },
    {
      "anonymous": false,
      "inputs": [
        {
          "indexed": true,
          "internalType": "address",
          "name": "candidates",
          "type": "address"
        },
        {
          "indexed": false,
          "internalType": "uint256",
          "name": "ammount",
          "type": "uint256"
        }
      ],
      "name": "Vote",
      "type": "event"
    },
    {
      "anonymous": false,
      "inputs": [
        {
          "indexed": false,
          "internalType": "uint256",
          "name": "ammount",
          "type": "uint256"
        }
      ],
      "name": "WithdrawAll",
      "type": "event"
    },
    {
      "inputs": [],
      "name": "DigitalRupee",
      "outputs": [
        {
          "internalType": "contract IERC20",
          "name": "",
          "type": "address"
        }
      ],
      "stateMutability": "view",
      "type": "function"
    },
    {
      "inputs": [
        {
          "internalType": "uint256",
          "name": "",
          "type": "uint256"
        }
      ],
      "name": "candidates",
      "outputs": [
        {
          "internalType": "uint256",
          "name": "id",
          "type": "uint256"
        },
        {
          "internalType": "string",
          "name": "name",
          "type": "string"
        },
        {
          "internalType": "uint256",
          "name": "votecount",
          "type": "uint256"
        }
      ],
      "stateMutability": "view",
      "type": "function"
    },
    {
      "inputs": [],
      "name": "candidatesCount",
      "outputs": [
        {
          "internalType": "uint256",
          "name": "",
          "type": "uint256"
        }
      ],
      "stateMutability": "view",
      "type": "function"
    },
    {
      "inputs": [],
      "name": "commit",
      "outputs": [
        {
          "internalType": "uint256",
          "name": "",
          "type": "uint256"
        }
      ],
      "stateMutability": "view",
      "type": "function"
    },
    {
      "inputs": [],
      "name": "owner",
      "outputs": [
        {
          "internalType": "address payable",
          "name": "",
          "type": "address"
        }
      ],
      "stateMutability": "view",
      "type": "function"
    },
    {
      "inputs": [
        {
          "internalType": "uint256",
          "name": "_CandidateId",
          "type": "uint256"
        }
      ],
      "name": "vote",
      "outputs": [],
      "stateMutability": "nonpayable",
      "type": "function"
    },
    {
      "inputs": [
        {
          "internalType": "address",
          "name": "",
          "type": "address"
        }
      ],
      "name": "voters",
      "outputs": [
        {
          "internalType": "bool",
          "name": "",
          "type": "bool"
        }
      ],
      "stateMutability": "view",
      "type": "function"
    },
    {
      "inputs": [],
      "name": "withdrawall",
      "outputs": [],
      "stateMutability": "nonpayable",
      "type": "function"
    }
  ],
  "bytecode": "0x60806040523480156200001157600080fd5b50604051620010c5380380620010c58339818101604052810190620000379190620002b7565b33600160006101000a81548173ffffffffffffffffffffffffffffffffffffffff021916908373ffffffffffffffffffffffffffffffffffffffff16021790555081600360006101000a81548173ffffffffffffffffffffffffffffffffffffffff021916908373ffffffffffffffffffffffffffffffffffffffff16021790555080600481905550620001066040518060400160405280600381526020017f424a5000000000000000000000000000000000000000000000000000000000008152506200015460201b60201c565b6200014c6040518060400160405280600381526020017f4e435000000000000000000000000000000000000000000000000000000000008152506200015460201b60201c565b50506200044c565b6002600081548092919062000169906200036c565b91905055506040518060600160405280600254815260200182815260200160008152506000806002548152602001908152602001600020600082015181600001556020820151816001019080519060200190620001c8929190620001d9565b506040820151816002015590505050565b828054620001e79062000336565b90600052602060002090601f0160209004810192826200020b576000855562000257565b82601f106200022657805160ff191683800117855562000257565b8280016001018555821562000257579182015b828111156200025657825182559160200191906001019062000239565b5b5090506200026691906200026a565b5090565b5b80821115620002855760008160009055506001016200026b565b5090565b6000815190506200029a8162000418565b92915050565b600081519050620002b18162000432565b92915050565b60008060408385031215620002cb57600080fd5b6000620002db8582860162000289565b9250506020620002ee85828601620002a0565b9150509250929050565b600062000305826200030c565b9050919050565b600073ffffffffffffffffffffffffffffffffffffffff82169050919050565b6000819050919050565b600060028204905060018216806200034f57607f821691505b60208210811415620003665762000365620003e9565b5b50919050565b600062000379826200032c565b91507fffffffffffffffffffffffffffffffffffffffffffffffffffffffffffffffff821415620003af57620003ae620003ba565b5b600182019050919050565b7f4e487b7100000000000000000000000000000000000000000000000000000000600052601160045260246000fd5b7f4e487b7100000000000000000000000000000000000000000000000000000000600052602260045260246000fd5b6200042381620002f8565b81146200042f57600080fd5b50565b6200043d816200032c565b81146200044957600080fd5b50565b610c69806200045c6000396000f3fe608060405234801561001057600080fd5b50600436106100885760003560e01c8063885213831161005b57806388521383146101175780638da5cb5b14610135578063a3ec138d14610153578063f66c72811461018357610088565b80630121b93f1461008d5780632d35a8a2146100a95780633477ee2e146100c75780633c7a3aff146100f9575b600080fd5b6100a760048036038101906100a2919061083c565b61018d565b005b6100b1610441565b6040516100be91906109de565b60405180910390f35b6100e160048036038101906100dc919061083c565b610447565b6040516100f0939291906109f9565b60405180910390f35b6101016104f9565b60405161010e91906109de565b60405180910390f35b61011f6104ff565b60405161012c91906109c3565b60405180910390f35b61013d610525565b60405161014a919061092d565b60405180910390f35b61016d600480360381019061016891906107ea565b61054b565b60405161017a91906109a8565b60405180910390f35b61018b61056b565b005b600560003373ffffffffffffffffffffffffffffffffffffffff1673ffffffffffffffffffffffffffffffffffffffff16815260200190815260200160002060009054906101000a900460ff16156101e457600080fd5b6001600360009054906101000a900473ffffffffffffffffffffffffffffffffffffffff1673ffffffffffffffffffffffffffffffffffffffff166370a08231336040518263ffffffff1660e01b81526004016102419190610912565b60206040518083038186803b15801561025957600080fd5b505afa15801561026d573d6000803e3d6000fd5b505050506040513d601f19601f820116820180604052508101906102919190610865565b101561029c57600080fd5b600360009054906101000a900473ffffffffffffffffffffffffffffffffffffffff1673ffffffffffffffffffffffffffffffffffffffff166323b872dd33306004546040518463ffffffff1660e01b81526004016102fd93929190610948565b602060405180830381600087803b15801561031757600080fd5b505af115801561032b573d6000803e3d6000fd5b505050506040513d601f19601f8201168201806040525081019061034f9190610813565b5060008111801561036257506002548111155b61036b57600080fd5b6001600560003373ffffffffffffffffffffffffffffffffffffffff1673ffffffffffffffffffffffffffffffffffffffff16815260200190815260200160002060006101000a81548160ff02191690831515021790555060008082815260200190815260200160002060020160008154809291906103e990610b36565b91905055503373ffffffffffffffffffffffffffffffffffffffff167ff668ead05c744b9178e571d2edb452e72baf6529c8d72160e64e59b50d865bd060045460405161043691906109de565b60405180910390a250565b60025481565b600060205280600052604060002060009150905080600001549080600101805461047090610b04565b80601f016020809104026020016040519081016040528092919081815260200182805461049c90610b04565b80156104e95780601f106104be576101008083540402835291602001916104e9565b820191906000526020600020905b8154815290600101906020018083116104cc57829003601f168201915b5050505050908060020154905083565b60045481565b600360009054906101000a900473ffffffffffffffffffffffffffffffffffffffff1681565b600160009054906101000a900473ffffffffffffffffffffffffffffffffffffffff1681565b60056020528060005260406000206000915054906101000a900460ff1681565b600160009054906101000a900473ffffffffffffffffffffffffffffffffffffffff1673ffffffffffffffffffffffffffffffffffffffff163373ffffffffffffffffffffffffffffffffffffffff16146105c557600080fd5b6000600360009054906101000a900473ffffffffffffffffffffffffffffffffffffffff1673ffffffffffffffffffffffffffffffffffffffff166370a08231306040518263ffffffff1660e01b81526004016106229190610912565b60206040518083038186803b15801561063a57600080fd5b505afa15801561064e573d6000803e3d6000fd5b505050506040513d601f19601f820116820180604052508101906106729190610865565b9050600360009054906101000a900473ffffffffffffffffffffffffffffffffffffffff1673ffffffffffffffffffffffffffffffffffffffff1663a9059cbb33836040518363ffffffff1660e01b81526004016106d192919061097f565b602060405180830381600087803b1580156106eb57600080fd5b505af11580156106ff573d6000803e3d6000fd5b505050506040513d601f19601f820116820180604052508101906107239190610813565b507f3d5a341dc6a12221fcf31279cef3771f8fad757b2d9261f97605ccc17c2574248160405161075391906109de565b60405180910390a1600160009054906101000a900473ffffffffffffffffffffffffffffffffffffffff1673ffffffffffffffffffffffffffffffffffffffff16ff5b6000813590506107a581610bee565b92915050565b6000815190506107ba81610c05565b92915050565b6000813590506107cf81610c1c565b92915050565b6000815190506107e481610c1c565b92915050565b6000602082840312156107fc57600080fd5b600061080a84828501610796565b91505092915050565b60006020828403121561082557600080fd5b6000610833848285016107ab565b91505092915050565b60006020828403121561084e57600080fd5b600061085c848285016107c0565b91505092915050565b60006020828403121561087757600080fd5b6000610885848285016107d5565b91505092915050565b61089781610a65565b82525050565b6108a681610a53565b82525050565b6108b581610a77565b82525050565b6108c481610aad565b82525050565b60006108d582610a37565b6108df8185610a42565b93506108ef818560208601610ad1565b6108f881610bdd565b840191505092915050565b61090c81610aa3565b82525050565b6000602082019050610927600083018461089d565b92915050565b6000602082019050610942600083018461088e565b92915050565b600060608201905061095d600083018661089d565b61096a602083018561089d565b6109776040830184610903565b949350505050565b6000604082019050610994600083018561089d565b6109a16020830184610903565b9392505050565b60006020820190506109bd60008301846108ac565b92915050565b60006020820190506109d860008301846108bb565b92915050565b60006020820190506109f36000830184610903565b92915050565b6000606082019050610a0e6000830186610903565b8181036020830152610a2081856108ca565b9050610a2f6040830184610903565b949350505050565b600081519050919050565b600082825260208201905092915050565b6000610a5e82610a83565b9050919050565b6000610a7082610a83565b9050919050565b60008115159050919050565b600073ffffffffffffffffffffffffffffffffffffffff82169050919050565b6000819050919050565b6000610ab882610abf565b9050919050565b6000610aca82610a83565b9050919050565b60005b83811015610aef578082015181840152602081019050610ad4565b83811115610afe576000848401525b50505050565b60006002820490506001821680610b1c57607f821691505b60208210811415610b3057610b2f610bae565b5b50919050565b6000610b4182610aa3565b91507fffffffffffffffffffffffffffffffffffffffffffffffffffffffffffffffff821415610b7457610b73610b7f565b5b600182019050919050565b7f4e487b7100000000000000000000000000000000000000000000000000000000600052601160045260246000fd5b7f4e487b7100000000000000000000000000000000000000000000000000000000600052602260045260246000fd5b6000601f19601f8301169050919050565b610bf781610a53565b8114610c0257600080fd5b50565b610c0e81610a77565b8114610c1957600080fd5b50565b610c2581610aa3565b8114610c3057600080fd5b5056fea26469706673582212208bb6c1badf8f43502f6b724b55d950c212c51a1430e2deed540deaf8c73ffaaf64736f6c63430008040033",
  "linkReferences": {},
  "deployedLinkReferences": {}
}